:020000040800F2
:100000000000022041AC0008395201083B520108AF
:100010003D5201083F520108415201080000000012
:100020000000000000000000000000004352010832
:10003000455201080000000047520108CDD60008D3
:10004000FDAC0008FDAC0008FDAC0008FDAC0008EC
:10005000FDAC0008FDAC0008FDAC0008FDAC0008DC
:10006000FDAC0008FDAC0008FDAC0008FDAC0008CC
:10007000FDAC0008FDAC0008B5E40008FDAC0008CC
:10008000FDAC0008C1E10008FDAC0008FDAC0008B3
:10009000FDAC0008FDAC0008FDAC0008FDAC00089C
:1000A000FDAC0008FDAC0008FDAC000849BD00082F
:1000B000FDAC0008FDAC0008FDAC0008E1C4000880
:1000C000DDC80008E5C40008D9C80008FDAC000878
:1000D000FDAC0008FDAC0008FDAC0008FDAC00085C
:1000E000FDAC0008FDAC000849520108FDAC000859
:1000F000FDAC0008FDAC0008FDAC0008FDAC00083C
:10010000FDAC0008FDAC0008FDAC0008FDAC00082B
:10011000C9D00008FDAC0008FDD00008FDAC000807
:10012000FDAC0008FDAC0008FDAC0008FDAC00080B
:10013000FDAC0008FDAC0008FDAC0008FDAC0008FB
:10014000FDAC0008FDAC0008FDAC000879520108C8
:10015000FDAC000819E7000899DE000895D00008FA
:10016000FDAC0008FDAC0008FDAC0008FDAC0008CB
:10017000FDAC0008FDAC0008FDAC0008FDAC0008BB
:08018000FDAC0008FDAC000815
:1080000010B5054C237833B9044810B10448AFF3D8
:1080100000800121217010BDB80B0020000000007D
:10802000A0A3020808B5064B1BB106480649AFF3EA
:1080300000800648016811B1054A02B1904708BDA9
:1080400000000000A0A30208BC0B0020B80B002019
:108050000000000081F0004102E000BF83F0004317
:1080600030B54FEA41044FEA430594EA050F08BFD3
:1080700090EA020F1FBF54EA000C55EA020C7FEA97
:10808000645C7FEA655C00F0E2804FEA5454D4EB14
:108090005555B8BF6D420CDD2C4480EA020281EADE
:1080A000030382EA000083EA010180EA020281EA16
:1080B0000303362D88BF30BD11F0004F4FEA013168
:1080C0004FF4801C4CEA113102D0404261EB410177
:1080D00013F0004F4FEA03334CEA133302D05242FD
:1080E00063EB430394EA050F00F0A780A4F10104B9
:1080F000D5F1200E0DDB02FA0EFC22FA05F28018F3
:1081000041F1000103FA0EF2801843FA05F35941D8
:108110000EE0A5F120050EF1200E012A03FA0EFC57
:1081200028BF4CF0020C43FA05F3C01851EBE37181
:1081300001F0004507D54FF0000EDCF1000C7EEB9E
:1081400000006EEB0101B1F5801F1BD3B1F5001FDC
:108150000CD349085FEA30004FEA3C0C04F10104FB
:108160004FEA445212F5800F80F09A80BCF1004F24
:1081700008BF5FEA500C50F1000041EB045141EAA6
:10818000050130BD5FEA4C0C404141EB010111F4A7
:10819000801FA4F10104E9D191F0000F04BF014652
:1081A0000020B1FA81F308BF2033A3F10B03B3F130
:1081B00020020CDA0C3208DD02F1140CC2F10C02C0
:1081C00001FA0CF021FA02F10CE002F11402D8BF1E
:1081D000C2F1200C01FA02F120FA0CFCDCBF41EAEA
:1081E0000C019040E41AA2BF01EB0451294330BDB9
:1081F0006FEA04041F3C1CDA0C340EDC04F1140496
:10820000C4F1200220FA04F001FA02F340EA03006C
:1082100021FA04F345EA030130BDC4F10C04C4F1B2
:10822000200220FA02F001FA04F340EA0300294692
:1082300030BD21FA04F0294630BD94F0000F83F4DC
:10824000801306BF81F480110134013D4EE77FEABF
:10825000645C18BF7FEA655C29D094EA050F08BF0B
:1082600090EA020F05D054EA000C04BF19461046EC
:1082700030BD91EA030F1EBF0021002030BD5FEA30
:10828000545C05D14000494128BF41F0004130BD58
:1082900014F580043CBF01F5801130BD01F00045AC
:1082A00045F0FE4141F470014FF0000030BD7FEA1F
:1082B000645C1ABF194610467FEA655C1CBF0B461A
:1082C000024650EA013406BF52EA033591EA030F31
:1082D00041F4002130BD00BF90F0000F04BF002129
:1082E000704730B54FF4806404F132044FF000055C
:1082F0004FF0000150E700BF90F0000F04BF0021D5
:10830000704730B54FF4806404F1320410F000453A
:1083100048BF40424FF000013EE700BF42004FEA35
:10832000E2014FEA31014FEA02701FBF12F07F43B2
:1083300093F07F4F81F06051704792F0000F14BFAF
:1083400093F07F4F704730B54FF4607401F00045F3
:1083500021F0004120E700BF50EA010208BF70474A
:1083600030B54FF000050AE050EA010208BF70473F
:1083700030B511F0004502D5404261EB41014FF4A8
:10838000806404F132045FEA915C3FF4DCAE4FF0AC
:1083900003025FEADC0C18BF03325FEADC0C18BF93
:1083A000033202EBDC02C2F1200300FA03FC20FAE4
:1083B00002F001FA03FE40EA0E0021FA02F1144431
:1083C000C1E600BF70B54FF0FF0C4CF4E06C1CEA46
:1083D00011541DBF1CEA135594EA0C0F95EA0C0FBB
:1083E00000F0DEF82C4481EA030621EA4C5123EA2E
:1083F0004C5350EA013518BF52EA033541F480115D
:1084000043F4801338D0A0FB02CE4FF00005E1FB0F
:1084100002E506F00042E0FB03E54FF00006E1FB59
:1084200003569CF0000F18BF4EF0010EA4F1FF049C
:10843000B6F5007F64F5407404D25FEA4E0E6D41DC
:1084400046EB060642EAC62141EA55514FEAC520ED
:1084500040EA5E504FEACE2EB4F1FD0C88BFBCF569
:10846000E06F1ED8BEF1004F08BF5FEA500E50F11A
:10847000000041EB045170BD06F0004646EA0101E0
:1084800040EA020081EA0301B4EB5C04C2BFD4EB12
:108490000C0541EA045170BD41F480114FF0000E0B
:1084A000013C00F3AB8014F1360FDEBF002001F079
:1084B000004170BDC4F10004203C35DA0C341BDCF3
:1084C00004F11404C4F1200500FA05F320FA04F0C5
:1084D00001FA05F240EA020001F0004221F00041F9
:1084E00010EBD37021FA04F642EB06015EEA430E6C
:1084F00008BF20EAD37070BDC4F10C04C4F120059C
:1085000000FA04F320FA05F001FA04F240EA02004E
:1085100001F0004110EBD37041F100015EEA430E1F
:1085200008BF20EAD37070BDC4F1200500FA05F23F
:108530004EEA020E20FA04F301FA05F243EA0203BE
:1085400021FA04F001F0004121FA04F220EA0200CD
:1085500000EBD3705EEA430E08BF20EAD37070BD13
:1085600094F0000F0FD101F00046400041EB0101F3
:1085700011F4801F08BF013CF7D041EA060195F0D5
:10858000000F18BF704703F00046520043EB03038F
:1085900013F4801F08BF013DF7D043EA060370477C
:1085A00094EA0C0F0CEA135518BF95EA0C0F0CD087
:1085B00050EA410618BF52EA4306D1D181EA0301CD
:1085C00001F000414FF0000070BD50EA410606BFC7
:1085D0001046194652EA430619D094EA0C0F02D10C
:1085E00050EA013613D195EA0C0F05D152EA033651
:1085F0001CBF104619460AD181EA030101F000416F
:1086000041F0FE4141F470014FF0000070BD41F0B7
:10861000FE4141F4780170BD70B54FF0FF0C4CF491
:10862000E06C1CEA11541DBF1CEA135594EA0C0FB0
:1086300095EA0C0F00F0A7F8A4EB050481EA030EFD
:1086400052EA03354FEA013100F088804FEA0333E4
:108650004FF0805545EA131343EA12634FEA0222B2
:1086600045EA111545EA10654FEA00260EF0004173
:108670009D4208BF964244F1FD0404F5407402D2C5
:108680005B084FEA3202B61A65EB03055B084FEA56
:1086900032024FF480104FF4002CB6EB020E75EB53
:1086A000030E22BFB61A754640EA0C005B084FEA7B
:1086B0003202B6EB020E75EB030E22BFB61A7546F8
:1086C00040EA5C005B084FEA3202B6EB020E75EB43
:1086D000030E22BFB61A754640EA9C005B084FEABB
:1086E0003202B6EB020E75EB030E22BFB61A7546C8
:1086F00040EADC0055EA060E18D04FEA051545EAB7
:1087000016754FEA06164FEAC30343EA52734FEA5F
:10871000C2025FEA1C1CC0D111F4801F0BD141EAD8
:1087200000014FF000004FF0004CB6E711F4801F3D
:1087300004BF01430020B4F1FD0C88BFBCF5E06F1D
:108740003FF6AFAEB5EB030C04BFB6EB020C5FEA2D
:10875000500C50F1000041EB045170BD0EF0004E82
:108760004EEA113114EB5C04C2BFD4EB0C0541EAB4
:10877000045170BD41F480114FF0000E013C90E6B1
:1087800045EA060E8DE60CEA135594EA0C0F08BF75
:1087900095EA0C0F3FF43BAF94EA0C0F0AD150EA74
:1087A00001347FF434AF95EA0C0F7FF425AF104607
:1087B00019462CE795EA0C0F06D152EA03353FF42F
:1087C000FDAE1046194622E750EA410618BF52EAAC
:1087D00043067FF4C5AE50EA41047FF40DAF52EA80
:1087E00043057FF4EBAE12E74FF0FF3C06E000BF1D
:1087F0004FF0010C02E000BF4FF0010C4DF804CD2A
:108800004FEA410C7FEA6C5C4FEA430C18BF7FEAE9
:108810006C5C1BD001B050EA410C0CBF52EA430C17
:1088200091EA030F02BF90EA020F0020704710F197
:10883000000F91EA030F58BF994208BF90422CBF26
:10884000D8176FEAE37040F0010070474FEA410C1F
:108850007FEA6C5C02D150EA013C07D14FEA430C3D
:108860007FEA6C5CD6D152EA033CD3D05DF8040BAE
:10887000704700BF8446104662468C4619466346E0
:1088800000E000BF01B5FFF7B7FF002848BF10F1B7
:10889000000F01BD4DF808EDFFF7F4FF0CBF0120FC
:1088A00000205DF808FB00BF4DF808EDFFF7EAFF78
:1088B00034BF012000205DF808FB00BF4DF808ED33
:1088C000FFF7E0FF94BF012000205DF808FB00BF28
:1088D0004DF808EDFFF7CEFF94BF012000205DF8B2
:1088E00008FB00BF4DF808EDFFF7C4FF34BF0120BF
:1088F00000205DF808FB00BF4FEA410212F50012AC
:1089000015D211D56FF47873B3EB625212D94FEAD6
:10891000C12343F0004343EA505311F0004F23FAC0
:1089200002F018BF404270474FF00000704750EA15
:10893000013005D111F0004008BF6FF000407047D2
:108940004FF00000704700BF4FEA4102B2F1E04330
:1089500024BFB3F5001CDCF1FE5C0DD901F0004C26
:108960004FEAC0024CEA5070B2F1004F40EB830076
:1089700008BF20F00100704711F0804F21D113F1A2
:108980003872BCBF01F00040704741F480114FEADB
:108990005252C2F11802C2F1200C10FA0CF320FA64
:1089A00002F018BF40F001004FEAC1234FEAD32381
:1089B00003FA0CFC40EA0C0023FA02F34FEA4303EB
:1089C000CCE77FEA625307D150EA01331EBF4FF074
:1089D000FE4040F44000704701F0004040F0FE408F
:1089E00040F40000704700BF4BB942B9002908BFEE
:1089F000002802D04FF0FF31084600F037B882B0AF
:108A0000EC462DE9005000F01BF8DDF804E002B060
:108A10000CBC7047F8B5164604460D461F4600F0DC
:108A200027F806FB01F300FB0737A6FB0023FB1822
:108A3000A21A65EB0303069CC4E90023F8BD00BF3E
:108A4000F8B5164604460D461F4600F06FF900FBC8
:108A500007F7A0FB062306FB0177FB18A21A65EBBC
:108A60000303069CC4E90023F8BD00BF704700BFA4
:108A700000292DE9F00F1D46C0F29D800024002D35
:108A8000C0F2948080460F4694461E46E3BB8A425D
:108A900055D9B2FA82F747B1C7F1200520FA05F699
:108AA00001FA07F1BA403143B840170CB1FBF7F6B1
:108AB000030C1FFA82FC07FB16110CFB06F543EAB8
:108AC00001439D4208D9711E9B1880F013819D427D
:108AD00040F21081023E9B18591BB1FBF7F507FBD2
:108AE000151380B20CFB05FC40EA03418C4507D905
:108AF0006B1E8A1880F00081944540F2FD80023D93
:108B000045EA0641002503E08B420CD900252946A1
:108B10000A462B4614B1524263EB430310461946F2
:108B2000BDE8F00F7047B3FA83F5002D40F0878061
:108B30008B4201D38242EAD800250121E8E712B92D
:108B40000126B6FBF2F2B2FA82F6002E39D18E1A65
:108B5000130C1FFA82FC0125B6FBF3F703FB176128
:108B60004FEA10490CFB07F849EA0146B04506D91F
:108B7000791EB61802D2B04500F2D3800F46C8EB7A
:108B80000606B6FBF3F103FB116380B20CFB01FC9C
:108B900040EA03439C4506D94E1E9A1802D29445DA
:108BA00000F2C280314641EA0741B1E7E443524254
:108BB00063EB430366E7404261EB41014FF0FF3452
:108BC0005DE7B240C6F1200921FA09F720FA09F55C
:108BD000130C01FA06F1B7FBF3F845EA01091FFA95
:108BE00082FC03FB18774FEA19410CFB08F541EAB8
:108BF0000747B040BD420AD9BF1808F1FF3680F0E0
:108C00008E80BD4240F28B80A8F10208BF18791B0C
:108C1000B1FBF3F503FB15171FFA89F90CFB05F6F9
:108C200049EA07418E4206D96F1E891871D28E42D9
:108C30006FD9023D89188E1B45EA08458CE7C5F1BE
:108C4000200122FA01F306FA05F61E4327FA01F283
:108C50004FEA164907FA05F720FA01F1B2FBF9F8D5
:108C60000F433B0C1FFA86FA09FB18220AFB08FB8C
:108C700043EA024293450CFA05FC08D9921908F11F
:108C8000FF314AD2934548D9A8F102089219CBEB9B
:108C90000203B3FBF9F109FB1132BFB20AFB01FA7F
:108CA00047EA02439A4506D94A1E9B1933D29A4590
:108CB00031D902399B1941EA08410F0C1FFA8CF88F
:108CC00008FB07F68AB24FEA1C4C08FB02F80CFBC3
:108CD000026202EB18420CFB07FC964288BF0CF5BF
:108CE000803CCAEB03030CEB124C63450ED305D05A
:108CF00000250DE70E46EFE61D4601E71FFA88F84E
:108D000000FA05F008EB0245A842F1D2013900252E
:108D1000FEE63D468FE71146CDE78846B7E7B04609
:108D200075E7023FB6182AE702393CE72DE9F0075C
:108D3000144605460E46002B3DD18A4249D9B2FA67
:108D400082F747B1C7F1200120FA01F206FA07F6CF
:108D5000BC401643BD40220CB6FBF2F02F0CA1B272
:108D600002FB106601FB00F347EA0646B34208D94E
:108D7000471E361980F0F880B34240F2F580023881
:108D80003619F61AB6FBF2F302FB1362ADB201FB21
:108D900003F145EA0242914207D95E1E121980F0A2
:108DA000E580914240F2E280023B43EA004000212C
:108DB000BDE8F00770478B4243D8B3FA83F4002C28
:108DC00042D18B4202D3824200F2DF800021012097
:108DD000EEE712B90127B7FBF2F4B4FA84F2002AE5
:108DE00040F088800A1B230CA7B20121B2FBF3F6E6
:108DF00003FB16224FEA154C07FB06F04CEA024231
:108E0000904207D9121906F1FF3C02D2904200F2BB
:108E1000CE806646121AB2FBF3F003FB1023ADB20C
:108E200007FB00F745EA03439F4207D9421E1B197F
:108E300080F09E809F4240F29B80023840EA0640CC
:108E4000B6E700210846B3E7C4F1200622FA06F58A
:108E500003FA04F32B434FEA134C21FA06F501FA07
:108E600004F120FA06F6B5FBFCF746EA010A1FFA00
:108E700083F80CFB17554FEA1A4108FB07F941EA42
:108E80000545A94502FA04F203D97E1EED187FD3E9
:108E90003746C9EB0501B1FBFCF60CFB16151FFAB2
:108EA0008AFA08FB06F84AEA0541884503D9751E87
:108EB000C91873D32E4646EA0746370C1FFA82FCC0
:108EC0000CFB07F5120CB3B20CFB03FC02FB0353C3
:108ED00003EB1C4302FB07F29D4288BF02F5803280
:108EE000C8EB010102EB134291424BD342D0304612
:108EF00000215DE79440C2F1200521FA05F6230C1C
:108F000020FA05F701FA02F1B6FBF3FC39430D0C28
:108F1000A7B203FB1C6645EA064607FB0CF8B04502
:108F200000FA02F508D936190CF1FF303DD2B045F0
:108F30003BD9ACF1020C3619C8EB0602B2FBF3F0D8
:108F400003FB10268AB242EA064207FB00F1914277
:108F500006D9461E121926D2914224D90238121976
:108F6000521A40EA0C4141E738460AE733461CE70B
:108F7000104663E71FFA8CFC00FA04F00CEB034385
:108F80009842B4D2701E002112E7214620460FE716
:108F9000A9457FF67DAF023FED187AE7884589D96C
:108FA000023EC91887E73046DAE78446C4E7023E46
:108FB00012192FE770B50821064601200FF0ECF9D1
:108FC000044618B90B4810F017FD11E00136B60041
:108FD00030460FF077FF0546206028B130460FF08D
:108FE00071FF0546606018B9024810F005FD2C4677
:108FF000204670BDA432020870B548210546012004
:109000000FF0CAF9044618B9144810F0F5FC22E034
:109010000135AD0028460FF055FF0646A06258B155
:1090200028460FF04FFF0646E06228B128460FF0B1
:1090300049FF0646206320B9084810F0DDFC34469D
:1090400009E028460FF03EFF0546606318B9034863
:1090500010F0D2FC2C46204670BD00BFD53202086D
:1090600038B50C21054601200FF096F90446681C1E
:10907000850028460FF026FF206028460FF022FFCB
:10908000606028460FF01EFFA060204638BD10B576
:109090000446806A18B10FF01DFF0023A362E06A46
:1090A00018B10FF017FF0020E062206B18B10FF02D
:1090B00011FF00212163606B18B10FF00BFF00223C
:1090C000626320460FF006FF012010BD10B5044674
:1090D000006818B10FF0FEFE00232360606818B12D
:1090E0000FF0F8FE0020606020460FF0F3FE012034
:1090F00010BD10B50446006818B10FF0EBFE002358
:109100002360606818B10FF0E5FE00206060A06881
:1091100018B10FF0DFFE0021A16020460FF0DAFE4B
:10912000012010BD0000000090ED017AD0ED007A22
:1091300027EE070A07EEA70A836870B5C1ED047A27
:1091400081ED057A8B61044610EE100A0E46FFF79A
:10915000E5F841EC100B15F019FB51EC100BFFF783
:10916000F3FB94ED021A00EE900A61EE011A40EE54
:10917000A01AF06011EE900AFFF7D0F841EC100B46
:1091800015F004FB51EC100BFFF7DEFBB0607069CB
:10919000FFF7C4F8044630690D46FFF7BFF845EC09
:1091A000104B41EC110B15F03BF913A3D3E900234D
:1091B00051EC100BFFF706F9FFF7C6FB3060B06902
:1091C000FFF7ACF80446F0680D46FFF7A7F845EC4A
:1091D000104B41EC110B15F023F907A3D3E9002341
:1091E00051EC100BFFF7EEF8FFF7AEFB70600120BB
:1091F00070BD00BFAFF30080F8C1631ADCA54C401E
:10920000F0B5D0ED056A90ED047A66EEA07A47EEEF
:10921000007A2DED068B90ED038A90ED06AAC7EE3D
:10922000889A064685B04AEE017AD0ED028AB0EE01
:10923000419A86ED0E1A87EEA81A80ED0C0A26EEEA
:10924000800A17EE200A80ED0A1AC0ED0D0AC0ED63
:109250000B9A10EE100AFFF761F81DA3D3E9002363
:10926000FFF7B0F868EE080A044610EE900A0D46C3
:10927000FFF754F86AEE299A02460B462046294623
:10928000FFF7CAF958EE099AFFF75EFB074630620E
:1092900019EE900AFFF742F80DA3D3E90023FFF778
:1092A00091F868EEA88A044618EE900A0D46FFF77A
:1092B00035F802460B4620462946FFF7ADF9FFF781
:1092C00043FBF7637062012005B0BDEC068BF0BD77
:1092D000F8C1631ADCA54C4084B02DE970432DED34
:1092E000068B0CAC84E80F001398179EFFF716F856
:1092F00058A3D3E90023FFF765F841EC100B41ECCC
:10930000180B14F065FE59EC108BB0EE480AF0EE25
:10931000680A14F051FF51EC100BFFF715FBDDED5F
:109320000F9A08EE100A0C98FEF7F8FF69EE887A9B
:10933000044627EE880A0D4610EE100AFEF7EEFFEF
:1093400002460B4600204249FEF788FE41EC100B16
:109350009DED149A15F01AFA204653EC102B29466D
:10936000FFF75AF9FFF7F0FA49460AEE100A4046AD
:10937000FFF7EAFA7AEE098A00EE900A1AEE100A6E
:1093800068EEA08AFEF7CAFF044619EE900A0D4661
:10939000FEF7C4FF02460B4600202D49FEF75EFE95
:1093A00002460B4620462946FFF70CF8044619EE04
:1093B000100A0D46FEF7B2FF02460B46204629462C
:1093C000FEF74EFE044618EE100A0D46FEF7A6FF05
:1093D00002460B4620462946FEF7F4FFFFF7B4FA93
:1093E00008EE100A28EE081A08EEA81A11EE100A64
:1093F000FEF794FF41EC100B15F0C8F951EC100B7F
:10940000FFF7A2FA01EE900A88EE218AB06018EE0A
:10941000100AFEF783FF41EC100B14F0A3FF0AA320
:10942000D3E9002351EC100BFEF7CCFFFFF78CFAC9
:10943000129B706033600120BDEC068BBDE8704369
:1094400004B07047AFF30080F8C1631ADCA54C404C
:109450000000F03F399D52A246DF913FAFF30080FC
:1094600084B02DE9F04F2DED048B89B016AC84E863
:109470000F0011EE900A12EE905AB0EE429AB0EE42
:10948000608AFEF74BFFDDED177A38EE670A8046FB
:1094900010EE100A8946FEF741FF2DA3D3E9002301
:1094A000FEF790FFFFF750FAFEF738FF41EC100B84
:1094B00041EC180B14F080FE28465BEC10ABFEF775
:1094C0002DFFB0EE480AF0EE680A04460D4614F08F
:1094D0007FFD52465B464046494657EC106BFEF70F
:1094E00071FF3246CDE900013B4620462946FEF792
:1094F00069FF02460B46DDE90001FEF7B1FDFFF70B
:1095000023FA1B9B3246986049463B464046FEF78D
:1095100059FF524606460F465B4620462946FEF74F
:1095200051FF02460B4630463946FEF797FDFFF7DE
:109530000BFA1B9C206084ED019A012009B0BDEC60
:10954000048BBDE8F04F04B0704700BFAFF300805C
:10955000399D52A246DF913F84B070B52DED048B4A
:1095600084B00CAC84E80F0010EE100AF0EE419AC3
:109570008DED031A8DED010ACDED020AFEF7CEFE48
:1095800035A3D3E90023FEF71DFF41EC100B41EC9E
:10959000180B14F01DFD51EC100BFFF7D5F9B0EED0
:1095A000480AF0EE680A09EE100A14F005FE51ECC4
:1095B000100BFFF7C9F99DED111A81EE293A139CA2
:1095C000129D2168012307EE900A23EE037AA1EC95
:1095D000017AAB4207DC51ED013A23EE834A0133B5
:1095E000A1EC014AF5E762684FF07E53136017EE75
:1095F000900AA36819EE106A0021196042F8046FFE
:1096000043F8040F11461C46022004310433A842DB
:1096100019DC13ED010A51ED016A67EE800A59EE7B
:10962000260A013010EE906A42F8046F13ED012A09
:1096300051ED011A69EE022A47EEA12A12EE906A54
:1096400044F8046FE1E7012004B0BDEC048BBDE8F1
:10965000704004B0704700BF399D52A246DF913F71
:109660002DE9F04F2DED048BF0EEC07AB7EE009AA5
:1096700085B0F4EE497AF1EE10FA02900391B0EE63
:10968000408A904604D1C74810F0B6F90020C0E1E6
:1096900002F1010302F102045C43022094FBF0F1A9
:1096A0004C1C04FA00F420460FF00CFC834680B1F9
:1096B00020460FF007FC814658B120460FF002FC0F
:1096C000824630B14FEA48060136A9F1040700246A
:1096D00001E0B548D8E7B44213DC08EE904AF8EE52
:1096E000E80A013410EE900AFEF718FE41EC100B68
:1096F00015F04CF851EC100BFFF726F947F8040F62
:10970000E9E7022309F108011A4643454FDC571CDB
:10971000BE005D005F1E681E00EE903A06EE107AF5
:1097200008EE900AB8EEE03AF8EEC66AF8EEE87A8B
:1097300086EE831A0BEB06044FEA820E56440BEBBF
:109740000E050195D6440D46012087EE835A86ED1D
:10975000001A84ED005A0C4616EE10CA461C04345A
:10976000844500EB02071EDD55ED023A14ED014A77
:10977000D4ED001A63EE844A87EEA17ADDF804C0C6
:10978000B0000CEB0007704484EEA10A15ED012A2D
:10979000C7EE022A043DC0EE025AC7ED002AC0ED12
:1097A000005A3046D8E7BA1C01330431ADE718EE51
:1097B000100AFEF7B3FD04460D4622462B46002054
:1097C0007A49FEF74BFC002206460F462046294602
:1097D000764BFEF745FC02460B4630463946FEF70F
:1097E000F1FD41EC100B14F0D1FFDFED718A029C0A
:1097F000039D84ED009A51EC100BC5ED008AB8F181
:10980000000F00F00581FFF79FF807EE900A84ED46
:10981000018AF0EE485A686002230121B7EE000A7F
:10982000434529DCC9188A000BEB0204D4ED006A19
:109830000AEB0205D5ED001A28EE261A20EE212AA1
:1098400011EE252AF0EE653A07EE103A48EE423A5C
:10985000F8EEC72A029E039C22EEA34AB018C4EE7B
:10986000274AA218013380ED002AB0EE650AC2ED46
:10987000004AF0EE425AD3E789EE287A09F10C014A
:1098800001230022D9ED026A66EEA86A984540F3EA
:109890009180D1ED005A51ED013A66EEA52A27EEEE
:1098A000277AC2EEA36AD7187A1C029D039C900007
:1098B0002E182718D018441C03988C4605EE103A31
:1098C00026EE874AB8EEC56A86EEA55A0133C4EE85
:1098D000254A68EE251A03EE903A26EE080AB8EEFD
:1098E000E34A21EE856AC6ED004A60EE240A26EEC0
:1098F000072A68EE044A65EE072A24EE820A12EE71
:10990000A50A80EEA73A2E46C0EE275AB1EE431ABA
:1099100087ED001AA700ED19C71985ED002A581C1C
:10992000C7ED005A09F10407404539DC2418A500A9
:109930000BEB050EDEED000A0AEB050696ED001AAC
:1099400028EE203A029E65EE011A53EE061A06EB47
:10995000050E04EE900A039E0CF1040C75190437F1
:109960006646B8EEE40AD6ED002A97ED005A21EEDD
:10997000872A60EE085A62EE853A26EE074A65EEBF
:10998000820A53EE840A8EED002A80EEA73A3E4604
:109990000130B0EE465A85ED003AB0EE616AC3E799
:1099A000083173E70B5602084B3502080000F03F00
:1099B0000000000009EBC80393ED006A86EE860AFA
:1099C000B8F1010FACBF424401320132029C039D49
:1099D000900021182A18584603EE108A27EE277A9D
:1099E000B8EEC31A60EE070A21EE488AC1ED000AFC
:1099F00068EE201A81EEA72A82ED002A0FF06AFA9B
:109A000048460FF067FA50460FF064FA012000E074
:109A1000404605B0BDEC048BBDE8F08F2DE9F04F5A
:109A20002DED028B002389B04FF07E5AC0F800A0C4
:109A300080460B6010EE100AB0EE408A0192894613
:109A4000FEF76CFC04460D4622462B460020B0492A
:109A5000FEF704FB00220F460646AD4B2046294682
:109A6000FEF7FEFA02460B4630463946FEF7AAFCE0
:109A700041EC100B14F08AFE51EC100BFEF764FF62
:109A8000019A08EE900A0198971C411C4F4302234B
:109A900097FBF3F0013000FA03F00FF013FA06EE33
:109AA00010AA074620B99B480FF0A6FF384629E1C7
:109AB00001252B46019EB34200F3A3805C1C029457
:109AC0005C1E022003FB04F696FBF0F1CA18511E3F
:109AD00001FA00F109EB010208EB010A04FB04F1B1
:109AE00006910299059201FB03FBAA1E9BFBF0FE67
:109AF0006A4300EE102A0EFA00F2761008EB02001C
:109B000009EB02016FF0030202FB0EFBB2009E1E86
:109B100066430092721096000496002293420FD181
:109B2000DAED001A28EEA12A059E80ED002A9AEDB2
:109B3000003AD6ED002A28EE034A08EEA24A56E083
:109B4000012B0CD1002A54D1D8ED000A28EE201A9E
:109B500080ED001A99ED007AD8ED007A14E048DD26
:109B6000944216DC009E00EB0B0C0CEB060E9EEDF7
:109B7000005A68EE055A01EB0B0CC0ED005A664422
:109B800096ED007ADEED007A28EEA74A18EE074A35
:109B90002DE0069E02FB126607EE906AB8EEC01A30
:109BA000F8EEE70A009EC0EE811A00EB0B0E0EEBFA
:109BB000060C049EB644009EDEED002A9CED002AB1
:109BC00021EEA23A18EE023A01EB0B0E80ED003ABC
:109BD0007644DCED003AD6ED006A049E28EEA34AF6
:109BE00018EE264AB644DEED004A01EEE44A81ED65
:109BF000004A0132043004319A428FDD0235029B63
:109C000058E787ED006A012601998E4252DC06F181
:109C1000010B0BFB06FC4FEA6C04711E07EB840082
:109C2000714374004A10611E01EE901A07EB820323
:109C3000D3ED002AB8EEE12A06EE906A22EE223A2F
:109C4000F8EEE63A044683EE234A4FF0010A80ED2F
:109C5000004A2068FEF762FBBAF1010F14BF01222F
:109C60000222CDE90201CAEB0B0050430AEB0603C6
:109C700004EE900A05EE903AB8EEE45AB8EEE56AC2
:109C80000AF1010A85EE067A17EE100AFEF746FB86
:109C900041EC100B14F07AFDDDE9020153EC102BBE
:109CA000FEF790FBFEF750FEB24544F8040FD0DDFE
:109CB0005E46A9E70123019EB3421FDC5C1C04FB46
:109CC00003F56A10960008EB060009EB0601BD19C2
:109CD000002205EB820690ED007AD6ED007A27EEA1
:109CE000270A0132A0EC010AD1ED000A20EEE71AA2
:109CF0009A42A1EC011AECDD2346DCE738460FF06E
:109D0000E9F8012009B0BDEC028BBDE8F08F00BF7F
:109D10000000F03F6D350208C0B52DED028B0746FF
:109D200085B010EE900A0E46FEF7F8FA1FA3D3E9AD
:109D30000023FEF747FB41EC100B14F03DFA51EC09
:109D4000100BFEF701FE102F08EE100A11DDF0EEE9
:109D5000C87A17EE900AFEF7E1FA02460B46002099
:109D60001149FEF77BF90EA3D3E90023FEF79CFD12
:109D700038B196E80300B0EE480A3A46FFF74EFEC7
:109D800006E096E80300B0EE480A3A46FFF768FCA2
:109D9000003018BF012005B0BDEC028BC0BD00BF74
:109DA000BBBDD7D9DF7CDB3D0000F03F399D52A21F
:109DB00046DF913FAFF300802DE9F04F2DED048B8E
:109DC000074689B008A800E90E00F96B4A1C90000C
:109DD0008DED020ACDED030A8DED041A0FF072F835
:109DE000064620B95C480FF007FE3046A8E0169CF6
:109DF00000230546B7EE008A6360A5EC018A03984C
:109E0000FEF78CFA52A3D3E90023FEF7DBFA41EC0C
:109E1000100B14F0D1F951EC100BFEF795FD09EE83
:109E2000100A0124F86B844200F3868004F10109D2
:109E30004FEA440A01EE909A00EE90AAB8EEE12AA9
:109E4000B8EEE01A0AF1FF38C1EE022A022109FB3E
:109E500004FB9BFBF1F202F1010B06EE908A07EE88
:109E6000104AF8EEE67AB8EEC70A28EE278A12EE14
:109E7000900A88EE008AFEF751FA41EC100B14F0BC
:109E800085FC53EC102B18EE100A8DED010A00939F
:109E9000FEF744FA019A009BFEF794FAFEF754FD90
:109EA000012C03EE100A02D1316871601AE0631EC2
:109EB0005B43AAF1030A581E0AFB08FA04EE100AD3
:109EC00008EE90AAB8EEC46AF8EEE88A15ED025AD8
:109ED000C6EE284A55ED013A64EE855A59EE235AEA
:109EE000C5ED005A3B6B059A07994FEA8B0B02EBC5
:109EF000840403EB0B007A6B90ED000A069802EBEA
:109F00000B03D3ED000AD0ED017AD1ED016A20EE0A
:109F1000A71A10EE261AD4ED001AB5EC017A169C99
:109F200021EE212AD4ED013A62EE072A42EE833A6D
:109F3000C4ED013A4C4675E730460EF0CBFF0120E8
:109F400009B0BDEC048BBDE8F08F00BFAFF300801B
:109F5000399D52A246DF913FB7340208AFF300802B
:109F600082B02DE9F04F2DED028B89B00D4614A97A
:109F700081E80C00159B1699179C0393049101230B
:109F800000218DED050ACDED060A8DED071AD5F8F5
:109F90003CE02B64A160616021600432734577DC92
:109FA0005E1C06FB03F8022707EE106A98FBF7F821
:109FB000049E039F002102910299043704369942BE
:109FC00064DC029901EB080C296B4FEA8C0C01EB65
:109FD0000C09696B01EB0C0ADAED005A56ED010A27
:109FE00099ED000A57ED016A25EEA01A00EE261A37
:109FF000D2ED001A016821EE212AF8EEC72A01EB02
:10A000000C0BDBED003A22EE223A94ED024A03EE0D
:10A01000634ADDED026A84ED024A17ED016A9AEDAA
:10A02000008AD9ED004A16ED015A68EE067A54EE20
:10A03000857A92ED000AF8EEE60A67EE805ADBEDCB
:10A04000001A94ED012A25EEA01A416801EE212A9A
:10A050008C4484ED012ADAED003A16ED014AD9ED7F
:10A06000002A17ED013A63EE844A42EE834A92EDEC
:10A07000005A9CED006AD4ED007A24EE858A02999C
:10A0800048EE467A0131C4ED007A94E7013384E763
:10A090000698FEF743F91CA3D3E90023FEF792F9D3
:10A0A00041EC100B13F094FF51EC100BFEF74CFC3D
:10A0B00008EE100AB0EEC86A16EE100AFEF72EF986
:10A0C00013A3D3E90023FEF70DFC30B1D4ED017AE0
:10A0D00087EE888A84ED018A0CE0009414AC28464F
:10A0E00094E80E009DED050ADDED060A9DED071AC8
:10A0F000FFF762FE012009B0BDEC028BBDE8F04F16
:10A1000002B07047AFF30080399D52A246DF913F05
:10A11000BBBDD7D9DF7CDB3D2DE9F04F2DED048BA6
:10A12000074689B008A800E90E00B96B4A1C9000E8
:10A130008DED020ACDED030A8DED041A0EF0C2FE7C
:10A14000064620B95C480FF057FC3046A8E0169C44
:10A1500000230546B7EE008A6360A5EC018A0398E8
:10A16000FEF7DCF852A3D3E90023FEF72BF941EC0C
:10A17000100B14F021F851EC100BFEF7E5FB09EE83
:10A18000100A0124B86B844200F3868004F10109AF
:10A190004FEA440A01EE909A00EE90AAB8EEE12A46
:10A1A000B8EEE01A0AF1FF38C1EE022A022109FBDB
:10A1B00004FB9BFBF1F202F1010B06EE908A07EE25
:10A1C000104AF8EEE67AB8EEC70A28EE278A12EEB1
:10A1D000900A88EE008AFEF7A1F841EC100B14F00B
:10A1E000D5FA53EC102B18EE100A8DED010A0093EE
:10A1F000FEF794F8019A009BFEF7E4F8FEF7A4FB43
:10A20000012C03EE100A02D1316871601AE0631E5E
:10A210005B43AAF1030A581E0AFB08FA04EE100A6F
:10A2200008EE90AAB8EEC46AF8EEE88A15ED025A74
:10A23000C6EE284A55ED013A64EE855A59EE235A86
:10A24000C5ED005ABB6A059A07994FEA8B0B02EBE2
:10A25000840403EB0B00FA6A90ED000A069802EB07
:10A260000B03D3ED000AD0ED017AD1ED016A20EEA7
:10A27000A71A10EE261AD4ED001AB5EC017A169C36
:10A2800021EE212AD4ED013A62EE072A42EE833A0A
:10A29000C4ED013A4C4675E730460EF01BFE012036
:10A2A00009B0BDEC048BBDE8F08F00BFAFF30080B8
:10A2B000399D52A246DF913F8D340208AFF30080F2
:10A2C00082B02DE9F04F2DED028B89B0884614A99C
:10A2D00081E80C00179C159B169DD8F838E0039375
:10A2E00000218DED050ACDED060A8DED071A0495C6
:10A2F000A160616021600432012373457BDC5D1C39
:10A30000022605FB03F999FBF6F9002107EE105A26
:10A31000039F049E0291029D043704369D4267DC30
:10A32000029DD8F8281005EB090CD8F82C504FEAFC
:10A330008C0C05EB0C0ADAED005A56ED010A61446B
:10A3400091ED000A57ED016A25EEA01A00EE261ADB
:10A35000D2ED001A056821EE212AF8EEC72A05EB96
:10A360000C0BDBED003A22EE223A94ED024A03EEAA
:10A37000634ADDED026A84ED024A17ED016A9AED47
:10A38000008AD1ED004A16ED015A68EE067A54EEC5
:10A39000857A92ED000AF8EEE60A67EE805ADBED68
:10A3A000001A94ED012A25EEA01AD4ED007A01EEF0
:10A3B000212A84ED012ADAED003A16ED014AD1EDA9
:10A3C000002A17ED013A63EE844A42EE834A41685F
:10A3D00092ED005A01EB0C0595ED006A24EE858A9A
:10A3E000029948EE467A4D1CC4ED007A029592E738
:10A3F0000133043281E70698FDF790FF1CA3D3E9EF
:10A400000023FDF7DFFF41EC100B13F0E1FD51ECF1
:10A41000100BFEF799FA08EE100AB0EEC86A16EEB5
:10A42000100AFDF77BFF14A3D3E90023FEF75AFAC5
:10A4300030B1D4ED017A87EE888A84ED018A0CE090
:10A44000009414AC404694E80E009DED050ADDED45
:10A45000060A9DED071AFFF75FFE012009B0BDEC6B
:10A46000028BBDE8F04F02B0704700BFAFF3008031
:10A47000399D52A246DF913FBBBDD7D9DF7CDB3D82
:10A4800084B02DE9F04194B01AAC259D269F84E854
:10A490000F00AB6B5A1C981C00FB02F1022691FBCB
:10A4A000F6F08DED050ACDED060A8DED071AFEF7E3
:10A4B00081FD0646A86BFEF7D3FDAB6B03900293BC
:10A4C0001EAA044692E803008DE803000DF1680E11
:10A4D0009EE80F009DED050ADDED060A9DED071AC9
:10A4E000FFF73AF89DED050ADDED060A9DED071A26
:10A4F0003146A86BFFF710FC08A80190A1680091F5
:10A5000094E80C0029469DED050ADDED060A9DED57
:10A51000071A3046FFF7D4FE0EAB0193A2680092F3
:10A5200094E80C0029469DED050ADDED060A9DED37
:10A53000071A3046FFF714FD249D0DF12C080095F5
:10A54000CDF8048020AD95E80F009DED050ADDED06
:10A55000060A9DED071ADDED081A9DED092ADDEDCD
:10A560000A2AFEF77DFF249911A80190009195E831
:10A570000F00DDED0E1A9DED0F2ADDED102A9DED89
:10A58000050ADDED060A9DED071AFEF769FF39465B
:10A590004046FEF7C9FD9DED110ADDED120A9DED65
:10A5A000131A3846FEF72CFE3046FEF78FFD204684
:10A5B000FEF79FFD012014B0BDE8F04104B07047E4
:10A5C0002DE9F04F2DED028B85B004AC04E90F00AE
:10A5D000109C119D236860682B60E36BA16B686021
:10A5E00003F1010A0AFB03F00222A96390FBF2F1D6
:10A5F00001EB030AEB6305F1080004F108019DED8E
:10A60000038A0FF0C9FCD4F838C00122624553DC3C
:10A61000561C022306FB02F797FBF3F000FA03F344
:10A6200000210F185745D5F82C902FDC676B07EBEE
:10A630000308E76AD4ED016AFF1898ED007AD7EDB8
:10A64000007A38EE660A276B40EE077A9944C9ED26
:10A65000007A07EB0309AF6A07EB030BA76AD4ED97
:10A66000010AFF1897ED002AD9ED001A38EE601A9A
:10A670006F6B01EE212AFF188BED002AD8F800E05D
:10A68000C7F800E0D9F800802F6B0CE0E76AFF18EC
:10A69000D7F8008009EB0307C7F80080A76AFF1806
:10A6A000D7F80080AF6AFF18013104339142C7F830
:10A6B0000080B6DD3246A9E7012005B0BDEC028B73
:10A6C000BDE8F08FF8B55A20FEF796FC244C2549DA
:10A6D00020600C238363C363416020222249083039
:10A6E0000FF0E8FC236821499E6ADD6A1C6B586BF9
:10A6F000002232602A602260026000220F6846F861
:10A70000047F0432D1F804E0AF18C7F800E0D1F8B4
:10A7100008C0A718C7F800C0D1F80CE0871810319E
:10A72000B2F5B47FC7F800E0E8D193ED017AF1EE1D
:10A73000047A37EE270A5B2083ED110AFEF75CFCF2
:10A740000B4B0C4918600C4A0C480D4B01604260E1
:10A7500083600C490C4A0D4B0161C2604361F8BD36
:10A76000481000200040FB4488320208285A0208A2
:10A77000680F00201951C74505A6C645BC1000202A
:10A78000D4BA5B3B3191A73D815DDB3B9A19C7454C
:10A7900008B5054B1868FEF77AFC04480068BDE868
:10A7A0000840FEF774BC00BF48100020680F00206E
:10A7B0002DE9F04F8BB0FFF785FF724BDFF8188261
:10A7C000DFF8189293F83340188E93F83210C9F8D6
:10A7D0000000D3ED016A93ED022AD3ED000ADFED0C
:10A7E0006A7AB8EEE67AF8EEC22A9FED683AB8EED9
:10A7F000E01A27EE270A61EE271A62EE833A00225A
:10A80000C8ED011AC8ED023AC8F81020C9F80410C2
:10A81000C9F8084088ED000A04F0A8F989ED030A98
:10A8200004F0A4F988ED020A04F0A0F988ED010A09
:10A8300004F09CF988ED000A45460FCD02AE0FC624
:10A840002F68534C3760534EDFF894B1079604F1EC
:10A85000100A9AE803008DE8030094E80F00FEF761
:10A860003BFD4D4BDBF800001A6801900092474613
:10A8700099E80F00FFF7A4FE0FCF96ED000AD6ED82
:10A88000010A96ED021A02AE0FC62968434F3160E5
:10A89000DBF80050424E0795424D08959AE80300B8
:10A8A0008DE8030094E80F00FFF7EAFD3C683046AE
:10A8B000A047D9F80C003C4CFDF730FD02460B4692
:10A8C0003A4821688847D8F80800FDF727FD024676
:10A8D0000B46374821688847D8F80400FDF71EFD6D
:10A8E00002460B46334821688847D8F80000FDF738
:10A8F00015FD02460B463048216888473B683046C4
:10A9000098472869FDF70AFD02460B462B48216847
:10A9100088476869FDF702FD02460B462848216812
:10A920008847A869FDF7FAFC02460B4625482168CE
:10A930008847E868FDF7F2FC02460B46224821688A
:10A940008847A868FDF7EAFC02460B461F482168C5
:10A9500088476868FDF7E2FC02460B461C48216800
:10A9600088472868FDF7DAFC0B460246216819483B
:10A9700088473A68304690470BB0BDE8F04FFFF784
:10A9800007BF00BF305C002095BFD633BD3786358A
:10A99000BC1000206010002048100020605B0020E8
:10A9A000F34902086C100020645B0020C85F0208B5
:10A9B000D75F0208E65F0208F55F0208046002083C
:10A9C0001360020822600208316002084060020839
:10A9D0004F6002085E6002084C100020AC1000209E
:10A9E000680F002013B50120174C01460DF0D0F878
:10A9F000032002214FF4C05300228DF805008DF88A
:10AA000004102046694600938DF806208DF8072033
:10AA10000CF01AFF20460B210A220CF06FFF0A22CD
:10AA200020460C210CF06AFF01214FF480400DF00C
:10AA3000D3F8802001210DF0B7F84FF080500121AC
:10AA40000DF0D6F81CBD00BF0000024007B54FF462
:10AA5000C0600CF07BFC012043238DF8050003222D
:10AA60008DF8070001A88DF804308DF806200CF051
:10AA700077FC0EBD782358430722B0FBF2F000218B
:10AA800001318142FCD970474FF47A735843FFF784
:10AA9000F1BF0000024B03490020186008607047B6
:10AAA000D4100020D81000200020704700207047EC
:10AAB00070B500238B420CD0074AC65C1468074D62
:10AAC0002E550134B4F5006F08BF00241460013323
:10AAD000F0E7002070BD00BF240F0020616300205C
:10AAE00070B500238B420ED0084AC65C1568084C2E
:10AAF00066550135632DC8BF002515601268002515
:10AB0000A5540133EEE7002070BD00BFD410002033
:10AB1000DC100020044B054918680A68801A18BF29
:10AB20006FF00000704700BFD8100020D410002044
:10AB3000084B09491A680868824207D00748815CB7
:10AB40000132632AC8BF00221A6000E0002148B227
:10AB5000704700BFD8100020D4100020DC10002067
:10AB600012230B80004870473400002004230B8020
:10AB7000004870473000002010B5044C04480A46D5
:10AB800021460CF075FA204610BD00BFA4620020DB
:10AB90006D60020810B5044C04480A4621460CF0CA
:10ABA00067FA204610BD00BFA46200208060020842
:10ABB00010B5044C04480A4621460CF059FA2046C8
:10ABC00010BD00BFA46200208E60020808B50A46CE
:10ABD00008B9044800E0044804490CF049FA034865
:10ABE00008BD00BF99600208A6600208A4620020A8
:10ABF00008B50A4608B9044800E0044804490CF0C6
:10AC000037FA034808BD00BFB3600208D4600208E9
:10AC1000A462002070477047014B01221A707047F0
:10AC2000D20C0020014B00221A707047D20C002079
:10AC3000014B01221A707047D20C002070477047F8
:10AC40001C481D49026800608A4200F01E800021F5
:10AC500000F004B8194B5B58435004311848194BA5
:10AC600042189A42FFF4F6AF174A00F003B80023E7
:10AC700042F8043B154B9A42FFF4F9AF0AF002FB8D
:10AC80000EF062F809F000F97047114E114830607B
:10AC9000114E12483060124E12483060124E134866
:10ACA0003060134E134830601348D0F800D040682D
:10ACB00000470000FCFF0120EFBEADDECCA3020880
:10ACC00000000020B80B0020B80B0020686B0020AB
:10ACD0003038024010000000001002400014000054
:10ACE000041002400000000008100240002800008C
:10ACF00014100240600000000000FF1FFFF7FEBFBD
:10AD00001FB5184B184A197802A80090062310683E
:10AD1000032201F0A7FC15499DF809009DF80A20BF
:10AD20009DF8083088704A719DF80C009DF80D2040
:10AD3000CB709DF80B3048700A700B71B1F9003080
:10AD400013F5805F0BD0B1F9020010F5805F06D0DB
:10AD5000B1F9041011F5805018BF012000E0002067
:10AD600005B000BD561100204C11002050110020EC
:10AD700030B55A485A4C90F8D2125A4D0023032944
:10AD80000CBF594A594A85B022601E221E218DF8F7
:10AD90000C302A7071230022206801F045FD32201A
:10ADA00002F032FE4F4B206819780122202301F077
:10ADB0003BFD142002F028FE4D4800210160416057
:10ADC00081600024474A464D1178286802220123F9
:10ADD00001F02AFD322002F017FE012002F014FEDD
:10ADE000404B3F4D197803A80090092201232868A1
:10ADF00001F038FC9DF80C10CB07EED5FFF780FF73
:10AE000080B33C4A3A4BB2F90000B2F90250B2F9B1
:10AE1000041007EE100A01EE905A04EE101AB8EE74
:10AE2000C70ADFED357AB8EEE12AF8EEC44A9FEDA5
:10AE3000335AC7EE800AC7EE822AC5EE245AD3EDF4
:10AE4000006A93ED013A93ED026A36EEA01A73EEB2
:10AE5000223A36EE257A83ED001AC3ED013A83EDEE
:10AE6000027A01E0013CE4B20134E4B2092CA9D930
:10AE70001F4B1B4D1B4C2868217893ED000A93ED66
:10AE8000011AD3ED022AF2EE047AC0EE270A00225C
:10AE9000C1EE271A82EEA73AF0EEE06AB0EEE12AA0
:10AEA000F0EEC33AC3ED006A83ED012AC3ED023A26
:10AEB000702301F0B9FC322002F0A6FD2178286849
:10AEC0000222002301F0B0FC322002F09DFDFFF7CA
:10AED00017FF322002F098FD05B030BD705D0020F4
:10AEE0004C11002056110020005800400054004032
:10AEF0005811002050110020CD0C9E446726934429
:10AF000070B52D4E2D4C2E4D30464FF480710CF007
:10AF1000EFFCBB21204602F047FB0021204602F057
:10AF200043FB00216870204602F03EFB00212870A0
:10AF3000204602F039FB0021E870204602F034FB85
:10AF40000021A870204602F02FFB002168712046E6
:10AF500002F02AFB00212871204602F025FB194D42
:10AF600000216870204602F01FFB00212870204657
:10AF700002F01AFB144D00216870204602F014FB09
:10AF800000212870204602F00FFB0021E8702046C7
:10AF900002F00AFB0021A870204602F005FB002108
:10AFA0006871204602F000FB4FF480712871304632
:10AFB000BDE870400CF09ABC00040240003C004028
:10AFC0008011002070110020BC110020224B234A68
:10AFD000B3F90000224B234907EE900A9FED227A35
:10AFE000B8EEE70A9FED211AC0EE070A2048D3ED1C
:10AFF0000D6A70EE811A93ED102AD3ED0E2A93EDAF
:10B00000113AD3ED0F3A93ED124AD3ED134A93ED73
:10B01000165AD3ED145A93ED176AD3ED157A93EDC2
:10B02000180A01EEA62A01EEA23A01EEA34A01EEA9
:10B03000A45A01EEA56A01EEA70AC1ED001A82ED3D
:10B04000002A82ED013A82ED024A80ED005A80ED3D
:10B05000016A80ED020A704770110020040C002084
:10B06000705D0020941100200000AA4300000C42F3
:10B070007411002030B52DED028B7C4887B0002381
:10B0800001220093019302930393049305930270AA
:10B0900041F28835764CFFF733FFFFF797FF94F8BE
:10B0A000D41201292AD19DED008A00F0FBFDD4EDD8
:10B0B000072AD4ED0A3A30EE623A03EE238A8DED88
:10B0C000008A9DED018A00F005FE94ED084A94ED9A
:10B0D0000B5A70EE444A04EE858A8DED018A9DED8F
:10B0E000028A00F00FFED4ED095AD4ED0C6A30EE5E
:10B0F000656A06EE268A8DED028A43E05D4A5E4867
:10B10000B2F90030B2F90210B2F9042006EE903A1A
:10B11000D4ED017AB8EEE60A90ED001A70EE670AF7
:10B1200094ED047A70EEC11A9DED002A02EE901A99
:10B1300006EE902A01EE872AB8EEE23AD4ED023A02
:10B14000B8EEE60AD4ED037A33EE634AD0ED014A55
:10B1500070EE670A90ED021A9DED016A8DED002AEE
:10B1600034EE645A9DED022AD4ED055A70EEC11AF0
:10B1700094ED067A05EE256A01EE872A8DED016AC7
:10B180008DED022A3D49B1F90030B1F90200B1F963
:10B19000042000EE103A02EE100A394B05EE102A98
:10B1A000F8EEC07AD3ED000AF8EEC22A93ED013A28
:10B1B000F8EEC55A93ED026A37EEE01ADDED031A98
:10B1C0009DED044A9DED050A72EEC33A75EEC66A1E
:10B1D00031EE817A74EE234A70EE267A013D4FF407
:10B1E0007A70ADB28DED037ACDED044ACDED057ADE
:10B1F00002F0EEFB002D7FF44DAF2B4600A9C818DE
:10B20000D0ED000A9FED1F1AC0EE811A06A91E4A52
:10B210009A18C0ED001AC81810ED037A87EE012ABB
:10B2200004330C2B82ED002AE8D19DED013ADDEDCF
:10B23000002A23EE034A02EEA24ADDED023A03EEB3
:10B24000A34A14EE100AFDF769F841EC100B13F055
:10B250009DFA51EC100BFDF777FB0C4A1060034888
:10B260000021017007B0BDEC028B30BDF00B002057
:10B27000705D002080110020040C0020BC11002013
:10B280007411002000409C45A4110020640000209F
:10B2900038B55A4D5A4C28464FF480710CF028FBB3
:10B2A0006B21204602F080F98021204602F07CF9D3
:10B2B00028464FF480710CF019FB962002F0A4FB95
:10B2C00028464FF480710CF013FB6B21204602F0EE
:10B2D0006BF90321204602F067F928464FF480718C
:10B2E0000CF004FB012002F073FB28464FF4807140
:10B2F0000CF0FEFA6A21204602F056F91021204691
:10B3000002F052F928464FF480710CF0EFFA012058
:10B3100002F05EFB28464FF480710CF0E9FA6C21D4
:10B32000204602F041F90021204602F03DF928466E
:10B330004FF480710CF0DAFA012002F049FB284644
:10B340004FF480710CF0D4FA1921204602F02CF948
:10B350000021204602F028F928464FF480710CF0B5
:10B36000C5FA012002F034FB28464FF480710CF03E
:10B37000BFFA1A21204602F017F9224B204693F813
:10B38000981002F011F928464FF480710CF0AEFAD3
:10B39000012002F01DFB28464FF480710CF0A8FA42
:10B3A0001C21204602F000F90821204602F0FCF89A
:10B3B00028464FF480710CF099FA012002F008FB46
:10B3C00028464FF480710CF093FA1B21204602F0BE
:10B3D000EBF81021204602F0E7F828464FF4807180
:10B3E0000CF084FA2046022102F003F9642002F0F6
:10B3F0000BFBBDE83840FFF73DBE00BF0004024034
:10B40000003C0040705D002030B50E4D0E4C2868A9
:10B41000217885B003AB00930022032301F022F9C9
:10B420000A489DF80C209DF80D109DF80E30827092
:10B430004170037021782868FF22482301F0F4F955
:10B4400005B030BDE8110020E4110020FC110020FF
:10B4500030B50E4D0E4C2868217885B003AB0093B3
:10B460000022032301F0FEF80A489DF80C209DF805
:10B470000D109DF80E30827041700370217828689D
:10B48000FF22582301F0D0F905B030BDE8110020AB
:10B49000E4110020D8110020094B0A491A880B68D2
:10B4A000094910021A1A09480B88026082FB03231B
:10B4B000D20D42EA4320064B00F5FA61196070474D
:10B4C000EC110020E0110020D0110020D411002048
:10B4D000F0110020000000002DE9F8434C494D4BCD
:10B4E0000E6818884C4A86FB00011488C50945EA95
:10B4F0004160CB114FEA04484849494C0A882588E5
:10B5000018EB00084FF0000949EB0309E80386FB3C
:10B510000245230A43EA05622C12424DD5F800E0A9
:10B520000021801841EB0401BEF5FA6F31DA764351
:10B530004FEAE67CAEF5FA667643F3179A00B4005C
:10B54000A41942EA967545EB0305A3086F104FEA6C
:10B55000340643EA8572AB10334DAE450EDA0EF277
:10B56000DC5464430725C5FB04670B2584FB0545B4
:10B570006D104FEA3404121943EB0503294CCCEB50
:10B580000E052560B8EB060869EB0709801A61EB28
:10B590000301264A1368A3FB004503FB0155610D17
:10B5A0006B1541EAC522B2EB080863EB09094FEAC3
:10B5B000D83040EA494207EE902A9FED1D0AB8EEC6
:10B5C000E77AC7EE000A10EE900AFCF7A7FE9FED9F
:10B5D0000C1B41EC100B12F025FF002053EC102B3C
:10B5E0001449FCF73BFD08A3D3E90023FCF7EAFE6E
:10B5F000FDF7AAF9104B5865BDE8F883AFF300805A
:10B60000000000C0955BC83F0000000040A5E54079
:10B61000D4110020D2110020DC11002000120020E3
:10B62000F8110020F011002024FAFFFFF41100208F
:10B6300080E6C5470000F03F185D0020AFF30080B2
:10B640007FB5464B464D93F8D302464C012803D1B3
:10B65000454E77222E6002E044497622296022700E
:10B6600021782868FF221E2301F0DEF803AE0A20AD
:10B6700002F0CAF921780096A2220223286800F07D
:10B68000F1FF9DF80C009DF80D10394BA422587065
:10B690001970286821780096022300F0E3FF9DF8D6
:10B6A0000C209DF80D00334B21785A701870A6229B
:10B6B00002230096286800F0D5FF9DF80C309DF815
:10B6C0000D202D4928684B700A70022321780096BE
:10B6D000A82200F0C7FF9DF80C109DF80D302748F8
:10B6E000AA2241700370217800960223286800F096
:10B6F000B9FF9DF80C209DF80D10214802234270DF
:10B700000170AC2221780096286800F0ABFF9DF80C
:10B710000C009DF80D201B4B217858701A7028687A
:10B72000FF22582301F080F80A2002F06DF9FFF79C
:10B730006BFE0A2002F068F9FFF78AFE0A2002F089
:10B7400063F91149114B0868114A186011681148D2
:10B750000160FFF7A1FEFFF7BFFE7FBD705D002017
:10B76000E8110020E411002000580040005400407F
:10B77000F8110020DC11002000120020D21100205E
:10B78000EC110020D0110020D8110020F41100206D
:10B79000FC110020E011002030B5294B294A93F814
:10B7A00099402949013C4FF07E500023032C32D8A8
:10B7B000DFE804F031021121244D136050609360E2
:10B7C000D060136153619361D36111622B60696032
:10B7D000AB60E8601DE01D4D116053609360D36065
:10B7E000106153619361D361116229606B60AB603A
:10B7F000EB6029611EE0154D136051609360D160CC
:10B80000136153619361D36111622B606860AB6017
:10B81000E9602B610EE00D4D106053609360D360C2
:10B82000116153619361D361116228606B60AB60F9
:10B83000EB6028616B61AB61EB61296230BD00BFD9
:10B84000705D002028120020000080BF041200203C
:10B850007FB500230C22ADF80430ADF80630ADF80A
:10B860000830ADF80A20ADF80C301D461248134ED2
:10B870002958134804AC043544F8101D69460CF0EF
:10B88000A5FC1C2133680F489847322002F0BCF811
:10B89000142DEBD14FF416426946094800920CF082
:10B8A00095FC33680848D92198470849084A002080
:10B8B0000870136898477FBD60010020B414002011
:10B8C000004400404101002068000020C71400200F
:10B8D000C014002010B53A4B187801286FD13949AF
:10B8E0000A78022A0CD13848384B01688268D9623C
:10B8F0001A604168C268006959609A60D86010BDDA
:10B90000032A0AD1304A314B116810795279D96231
:10B9100083F8290083F82A2010BD042A08D12A4878
:10B920002A4B016882894089D9629A86D88610BDDF
:10B93000062A08D12448254B016890F82F20D962A7
:10B9400083F8282010BD122A10D11F4A1F4B1168FE
:10B950005068D96218619168D0685961986111691D
:10B9600050699269D96118625A6210BD212A0CD1BE
:10B970001548164B02688189DA62827BC07B198682
:10B9800083F8322083F8330010BD302A17D10E4AD5
:10B990000E4B1068D8621079002183F8380001330B
:10B9A00081420CD0147A83F83840547A83F86A4084
:10B9B00012F80C4F013183F89C40C9B2EFE710BD7B
:10B9C000B8140020C414002050120020305C002065
:10B9D000F8B53D4B18688047002507462E46BD4206
:10B9E00070D03A493A4C0A689047034620780828B4
:10B9F00065D8DFE800F005090D15222F3D555B00E5
:10BA0000B52B5CD1012359E0622B56D1022355E0BE
:10BA1000304A31483149137003700B7003234DE0F5
:10BA20002D482F4A017813705B182C4ADBB2037043
:10BA300010781918117004212FE02748294A01783D
:10BA400013705B18254ADBB2037010781918117057
:10BA5000052122E0244A002010701F481F4A017867
:10BA60005B18DBB20370107819181170062114E00E
:10BA7000194A10781918C9B21170184A10780918A3
:10BA80001170194A1948117843544B1CD9B21170DE
:10BA9000144A1078884212D807210D4B19700EE015
:10BAA0000D480178994208D1082307E00B490A782C
:10BAB0009A4202D1FFF70EFF0126002323700135C1
:10BAC000ADB28CE73046F8BDB0140020BC140020A5
:10BAD000C7140020B8140020B9140020C514002099
:10BAE000C41400204C120020C61400205012002064
:10BAF0002DE9F0419CB0654865490E904FF4006512
:10BB00001495644D0F914FF000734FF400300024F2
:10BB10004FF4806210260D9317904FF480732846DF
:10BB20000DA94FF400571693139210941294159781
:10BB3000189419941A941B9411960BF075FD2846CD
:10BB400001210BF09BFD03274FF0020801A9524889
:10BB50008DF809408DF80A408DF80B40CDF804802F
:10BB60008DF808700BF070FE312101914B4801A94E
:10BB70000BF06AFE4FF4803203A8049203940594FC
:10BB800006940BF049FC079409940A940B94444CD6
:10BB90008DF830600125204607A98DF820508DF8DA
:10BBA00021500BF013FC20460E212A4607230BF0F0
:10BBB00050FC20460921424607230BF04AFC204650
:10BBC0000F213A4607230BF044FC20460E210422A5
:10BBD00007230BF03EFC20460921052207230BF02A
:10BBE00038FC2046062207230F210BF032FC0E21E1
:10BBF0000722204613460BF02CFC20460921082280
:10BC000007230BF026FC20460F21092207230BF007
:10BC100020FC20460E210A2207230BF01AFC2046A6
:10BC200009210B2207230BF014FC20460F210C22C4
:10BC300007230BF00EFC20460E210D2207230BF0EC
:10BC400008FC204609210E2207230BF002FC0F21DD
:10BC500020460A4607230BF0FCFB3246072320460A
:10BC60000A210BF0F6FB204629460BF04EFC20463D
:10BC700029460BF041FC204629460BF0E1FB20460B
:10BC80000BF035FC1CB0BDE8F08100BF4C21014039
:10BC9000200C0020406402400004024000080240E2
:10BCA00000210140DFED097A0023094A985A07EE86
:10BCB000100A0633B8EEC70A1E2B77EE807AF4D14D
:10BCC000F1EE040A87EEA00A704700BF00000000F2
:10BCD000200C0020DFED097A0023094AD018063332
:10BCE000418807EE101AB8EEC70A1E2B77EE807A4D
:10BCF000F3D1F1EE040A87EEA00A704700000000BD
:10BD0000200C0020DFED097A0023094AD018063301
:10BD1000818807EE101AB8EEC70A1E2B77EE807ADC
:10BD2000F3D1F1EE040A87EEA00A7047000000008C
:10BD3000200C0020034BD88B00EE100AB8EE400A0E
:10BD4000704700BF200C002070B5394C08212046F8
:10BD50000CF02CFA0128064637D120460CF07AF96F
:10BD6000082185B220460CF02CFA324B324A187862
:10BD7000194680B915801E70218C21F4807003044F
:10BD80001A0C2284268C26F420610804030C43F448
:10BD90004072228419E016882848B54201D9AD1BAB
:10BDA00001E0F3435D1900220A70214905800E8CE1
:10BDB00026F4807003041A0C0A840E8C26F420608A
:10BDC00003041A0C42F480760E84102118480CF0FB
:10BDD000EDF9012806462AD1194C1A4D218814483C
:10BDE00029800CF035F92080174810210670104882
:10BDF0000CF0E7F922882B88D11A8BB240F68C2000
:10BE00008342124A02D90023137070BDA3F2EF21BE
:10BE100088B240F2DA51884205D81278072A9CBFCE
:10BE20000B4921F81230094B1878411C197070BD6C
:10BE300000000140640C0020620C0020600C002017
:10BE40004C0C00205E0C0020850C0020650C0020AE
:10BE50004E0C002070B53F4A3F48404D00238AB049
:10BE600013800D2101221C460BF048FD02214FF4E6
:10BE7000005002908DF80C108DF80D108DF80F10F9
:10BE800035488DF80E4002A90BF0DEFC95F8B06045
:10BE9000B6B9334B304840F2DC540E2101221C80ED
:10BEA0005C809C80DC801C815C819C81DC810BF04F
:10BEB00025FD4FF480422848029202A90BF0C4FCF1
:10BEC0001B200024022101258DF8040001A88DF813
:10BED000051053268DF806408DF807500BF040FAF8
:10BEE0004FF6FF721F48089207A9ADF81C60ADF825
:10BEF0001E400826ADF824408DF826400BF068FF60
:10BF00001848ADF8106004A9ADF81240ADF814500F
:10BF1000ADF81640ADF818400CF0CEF81148314697
:10BF20002A460CF036F90D4890F8B01059B90C2398
:10BF30000C48ADF8103004A90CF0BEF809481021E7
:10BF40002A460CF026F9074801210BF083FF0AB0BE
:10BF500070BD00BF600C002000100240705D00202A
:10BF60004E0C002000000140074B188800EE100A1C
:10BF7000DFED067AF8EE400AB1EE0C1A20EEA70AC1
:10BF8000DFED030A09F0FAB9600C0020F5C8343976
:10BF900000000000024B33F81000410088B27047E7
:10BFA0004E0C0020884206D250F8042B92FAA2F2DE
:10BFB000014B1A60F6E770470030024070B5064644
:10BFC0000D464FF480500121084C0BF0E1FD012398
:10BFD000A36000BF00BF00BF00BF30462946FFF787
:10BFE000E1FF206890FAA0F1C84370BD0030024024
:10BFF000F7B5194C194D00206323012702268DF84F
:10C0000006008DF807006946204600938DF80470FD
:10C010008DF805600BF018FC9021009128466946C8
:10C020000BF012FC204620210BF062FC2046402140
:10C030000BF05EFC284680210BF05AFC2046394666
:10C040000BF056FC204631460BF052FC28461021DE
:10C050000BF04EFCFEBD00BF00100240000C024081
:10C06000524B984213B548D10120C024022200232C
:10C070008DF804008DF8060069464D4800948DF84F
:10C0800005208DF807300BF0DFFB214648480BF008
:10C090002DFC0824464840210BF022FC18B903204F
:10C0A00001F096FCF6E7402141480BF021FC03200B
:10C0B00001F08EFC40213E480BF018FC032001F0FB
:10C0C00087FC611E11F0FF04E4D1802138480BF099
:10C0D0000FFC032001F07CFC402135480BF008FCEC
:10C0E000032001F075FC402131480BF0FFFB0320D9
:10C0F00001F06EFC2E48802152E02E49884254D136
:10C1000001204FF44064022200238DF804008DF8D2
:10C1100006006946264800948DF805208DF8073002
:10C120000BF092FB214622480BF0E0FB082420484C
:10C130004FF480610BF0D4FB18B9032001F048FCE8
:10C14000F5E74FF480611A480BF0D2FB032001F0B1
:10C150003FFC4FF4806116480BF0C8FB032001F050
:10C1600037FC611E11F0FF04E1D14FF4006110486B
:10C170000BF0BEFB032001F02BFC4FF480610C4858
:10C180000BF0B6FB032001F023FC4FF4806108485C
:10C190000BF0ACFB032001F01BFC05484FF40061E1
:10C1A0000BF0A4FB032001F013FC1CBD0054004065
:10C1B00000040240005800402DE9F74F9F4C2068D2
:10C1C000838A9BB213F0010239D0028822F4006303
:10C1D00019040A0C028001210BF07AFC9849994B52
:10C1E0000A7800201870DAB1974803781BB997498C
:10C1F0000A78FF2A14D10123037095480178022997
:10C2000006D18E4A1368188881B241F400621A8000
:10C21000904B8A481978006801220BF051FC35E1F7
:10C220008C48864B0178186800220BF049FC87493E
:10C230000A78FF2A00F02A81FF20824BE4E003F015
:10C240000201C9B2002943D0BFF35F8F804D2E7821
:10C25000012E354619D17A490B78B3B17A490B785A
:10C260009BB111460BF034FCBFF35F8F2068028B4B
:10C270003146D3B28DF807300BF016FC76492068B2
:10C280000E7032464FF48061FEE0028BD1B28DF821
:10C290000710BFF35F8F6E4B1A78022A09D16849E5
:10C2A0000A7832B168490A781AB100210BF010FC03
:10C2B000E5E01B78032B07D161490A7822B1624B74
:10C2C0001978002940F0DD804FF480610122DBE025
:10C2D00003F00406F6B2002E71D0594BDFF87881D6
:10C2E0001A78594B012688F80060002A4DD01A7838
:10C2F000002A4AD0564D2F78524D022F574F29D938
:10C300000BF0E6FB95F800902068D7F800A00BF042
:10C31000EDFB4FFA89FB31460AF80B0009EB0600EA
:10C32000287020680BF0C0FB88F80060206895F842
:10C3300000803F680BF0DAFB4FFA88F94FF4806118
:10C3400007F80900B044206885F8008032460BF0F9
:10C35000D0FB2BE031460BF0A7FB2E782068D7F8F6
:10C3600000800BF0C3FB4FFA86F9731C08F8090034
:10C37000D9B220683F6829704FFA81F80BF0B6FBFC
:10C38000033607F808002E7010E01B78012113B95E
:10C39000334A13782BB10BF087FB2A480278511CE3
:10C3A00003E00BF075FB284801210170234A116856
:10C3B0000B8803F4807082B2002AF9D166E003F0A2
:10C3C00040010F461F4D09B3244B2F78D3F800804E
:10C3D0000BF08CFB4FFA87F908F80900781CC1B202
:10C3E00029701B4D4FB22A780337BA4205D1206815
:10C3F0004FF4806132460BF07CFB124B28781A78A0
:10C4000051B2884242D1501C18703FE01B063DD506
:10C410002B785EB2721C27D012490A680133915DF5
:10C420002B700BF061FB0A4895F9002001789142CE
:10C430002CD120684FF480613A4625E07C0C002026
:10C440007A0C0020690C0020780C0020790C002068
:10C450006A0C0020810C00206B0C00206C0C00206A
:10C46000680C0020740C0020154A297011780BF01C
:10C470003BFB1448017811B9134B1A7832B91348B1
:10C4800000684FF4806100220BF033FB0E49104A24
:10C490000B7892F90000591C88420ED10D480E4BC2
:10C4A000017800221A7029B1084B4FF440711868C6
:10C4B0000BF01FFB094800220270BDE8FE8F00BF91
:10C4C000790C00207A0C00206A0C00207C0C0020E3
:10C4D000690C00206B0C0020780C0020800C0020E0
:10C4E000FFF76ABEFFF768BEF0B55A4B984289B0B5
:10C4F00004464FD1FFF7B4FD04A80BF0AFFA56483D
:10C50000564F062104220BF0F9F902260422524864
:10C510000721C0250BF0F2F902958DF80C6000257B
:10C520008DF80D604C488DF80F50012602A98DF84A
:10C530000E600BF089F92A464FF4407120460BF04B
:10C54000D8FA20460BF0F2F94FF480414BF6FF7316
:10C55000ADF81C10204604A9ADF816300497ADF8CC
:10C560001450ADF81850ADF81A500BF00DFA2046E3
:10C5700031460BF081FA20208DF8040001A88DF8D7
:10C5800005508DF806508DF807602F460AF0E8FE3A
:10C590001F2258E0324988425AD1FFF761FD02A8B4
:10C5A0000BF095F904A80BF059FA2B482B4F0A21F0
:10C5B00004220BF0A3F928480B2104220BF09EF96A
:10C5C0004FF44060002502220126029002A9224871
:10C5D0008DF80C208DF80D208DF80E608DF80F5021
:10C5E0000BF032F92A464FF4407120460BF081FAE5
:10C5F00020460BF09BF904A80BF030FA4FF4804171
:10C600004BF6FF73ADF81C10204604A9ADF81630A8
:10C610000497ADF81450ADF81850ADF81A500BF05F
:10C62000B3F9204631460BF027FA22208DF804009A
:10C6300001A88DF805508DF806508DF807602F463B
:10C640000AF08EFE212201A88DF804200AF088FE4F
:10C6500009B0F0BD0054004000040240801A0600FA
:10C660000058004038B5274D049C28604900264DED
:10C67000C9B2297025490A70254A0021117025493F
:10C6800001220A7024490C6024490C6024490B7073
:10C69000244B1A70828802F400718BB2A3B902880D
:10C6A00002F480718BB243B9028802F400718BB23C
:10C6B000002BF9D101210BF0EBF912484FF4407136
:10C6C000006801220BF015FA47F23053154A117831
:10C6D00011B1013BFAD100E093B90A48124A00684F
:10C6E000904201D1114B03E01149884204D1114B12
:10C6F0001A88511C8AB21A80FFF7F6FE002038BD56
:10C70000012038BD7C0C0020810C0020790C002019
:10C71000680C00207A0C00206C0C0020740C0020A7
:10C720006A0C0020800C002000540040700C002097
:10C7300000580040660C00207FB52E4D089C2860F4
:10C740004900CEB22C4D2D492E700A702C4A2D4E28
:10C750002D4D01211170002232700DEB02062E606A
:10C760002A4D2E602A4D2B702A4D102B29703BD854
:10C77000D1B2994204D2A15C0DF802100132F7E760
:10C78000838803F4007291B2A1B9038803F4807224
:10C7900091B241B9038803F4007291B20029F9D132
:10C7A00001210BF075F913484FF440710068012224
:10C7B0000BF09FF947F23053164A117811B1013B43
:10C7C000FAD100E093B90B48134A0068904201D1B6
:10C7D000124B03E01249884204D1124B1A88511CB3
:10C7E0008AB21A80FFF780FE002000E0012004B02A
:10C7F00070BD00BF7C0C0020810C0020790C002053
:10C80000680C00207A0C0020740C00206C0C0020B6
:10C810006A0C0020800C002000540040700C0020A6
:10C8200000580040660C00201FB504AC04F8013D20
:10C8300001230094FFF780FF04B010BD37B5244CEE
:10C840002068838A99B20091009A12F4E06F32D086
:10C85000038B99B2019100224FF480610BF049F9EA
:10C860000098820527D42068028802F4007399B2E8
:10C8700009BB058805F4807295B29DB1038803F465
:10C8800080718AB2002AF9D101210BF00DF910480C
:10C890000068038803F400718AB2002AF9D1FFF717
:10C8A00023FE08E001210BF0FFF820684FF44071EF
:10C8B0002A460BF01EF9064801688B8A23F4706241
:10C8C0001004030C034A8B82002111703EBD00BF8F
:10C8D0007C0C0020800C0020FFF7B0BFFFF7AEBF3C
:10C8E0002DE9F04109218AB003226348634EDFF845
:10C8F000A4810BF003F8082103225F480AF0FEFF31
:10C900000F2101225E480AF0F9FF032101225D4850
:10C910000AF0F4FF042102225A480AF0EFFF052131
:10C92000022258480AF0EAFF0021022254480AF085
:10C93000E5FF02210A4652480AF0E0FF002448F2CF
:10C94000050302274E48009369468DF804708DF860
:10C9500005708DF806408DF807400AF075FF382005
:10C960000090694647480AF06FFF4FF4407100910C
:10C97000414869460AF068FFB6F8BA20ADF81040A1
:10C9800098FBF2F5ABB2581E29210390ADF80810C0
:10C990004FF0804002A9ADF80A408DF812400BF02C
:10C9A00017FA394802A90BF013FA384802A90BF01C
:10C9B0000FFA70254FF480704FF4FA63ADF81450FD
:10C9C000ADF8240001254FF0804005A90793ADF88C
:10C9D0001650ADF81840ADF82070ADF82240ADF813
:10C9E00026400BF043FA4FF0804005A90BF076FA91
:10C9F000254805A90BF03AFA234805A90BF06EFA71
:10CA0000224805A90BF0AEFA204805A90BF0ECFA74
:10CA10004FF0804029460BF01DFA1B4829460BF0C9
:10CA200019FA1A4829460BF015FA294617480BF04F
:10CA3000A2FB96F8D41061B9B6F8DC20D6ED397AAD
:10CA400098FBF2F3BCEEE70A98B2411E8DED070A9F
:10CA5000039102A90E480BF0BBF905A90C480BF095
:10CA600005FA05A90A480BF07DFA094801210BF0E7
:10CA7000F1F90AB0BDE8F08100080240705D0020C5
:10CA80000000024000040240000400400004014095
:10CA9000000C004080841E00024B53F8200001600F
:10CAA000704700BFF8600208F0B5374D8BB02846DC
:10CAB0000C2102220AF022FF28460D2102220AF050
:10CAC0001DFF28460E2102220AF018FF02222846E6
:10CAD0000F210AF013FF002402274FF47043284669
:10CAE000694600938DF804708DF805708DF8064046
:10CAF0008DF807400AF0A8FE2448254AB0F8BC107B
:10CB0000ADF8104092FBF1F6B3B2A5F50135581E11
:10CB100029210390ADF80810284602A97026ADF827
:10CB20000A408DF812400BF053F94FF4807040F634
:10CB3000B833ADF81460ADF824000126284605A9E5
:10CB40000793ADF81660ADF81840ADF82070ADF859
:10CB50002240ADF826400BF089F9284605A90BF0D4
:10CB6000BDF9284605A90BF0FDF9284605A90BF0EB
:10CB70003BFA284631460BF06DF9284631460BF05A
:10CB8000FAFA0BB0F0BD00BF000C0240705D00204F
:10CB900080841E00024B53F820000160704700BFE4
:10CBA0001861020808B5094B09483222FF211A70A2
:10CBB00000F0FAFCFF21064800F0F6FCFF2803D045
:10CBC00002490A78002AF5D108BD00BF830C002075
:10CBD0000030014070B51646020604460D4608D5E1
:10CBE000002177200A46FFF7F5FF012836D804F028
:10CBF0007F04402C20D12146194800F0D5FC290E95
:10CC0000174800F0D1FCC5F30741154800F0CCFCF3
:10CC1000C5F30721124800F0C7FCE9B2104800F044
:10CC2000C3FC0F48314600F0BFFC4C2C0AD1FF2159
:10CC30000B4800F0B9FC05E0FFF7B4FFFF28DAD09D
:10CC4000FF200BE00A24FF21054800F0ADFC03069D
:10CC500004D5013C14F0FF04F5D170BD70BD00BFD8
:10CC60000030014070B556484FF480610AF03EFE36
:10CC70000A24FF215348013C00F096FC14F0FF0405
:10CC8000F7D14F48504D4FF480610AF031FE4020FB
:10CC9000952221462C70FFF79DFF0128064678D18A
:10CCA0004A4B64221A70482087224FF4D571FFF74F
:10CCB00091FF012847D1FF21424800F075FCFF2178
:10CCC000404800F071FCFF213E4800F06DFCFF2160
:10CCD00004463C4800F068FC012C5AD1AA2858D1DF
:10CCE0003A490A780C461AB92378002B51D008E04B
:10CCF000E9204FF080410122FFF76CFF0028EFD1BF
:10CD0000F2E77A2000210122FFF764FF002840D1DA
:10CD1000FF212C4800F048FCFF210446294800F080
:10CD200043FCFF21274800F03FFCFF21254800F08D
:10CD30003BFC04F04000C1B2234B00290CBF04228D
:10CD40000C221A7025E0E92021463246FFF742FF07
:10CD5000012803D802202870E92401E02E70412424
:10CD60001A490A780D4612B92B787BB107E02046A4
:10CD700000210122FFF72EFF0028F1D1F4E7502017
:10CD80004FF400710122FFF725FF10B10E48002477
:10CD900004700B480C4C4FF480610AF0A7FDFF2192
:10CDA000084800F001FC217821B10648042100F078
:10CDB00020FC03E044F2040006F020FC207870BD63
:10CDC0000010024000300140840C0020820C002042
:10CDD000064B1A7812B1501EC1B21970044B1A7862
:10CDE00012B1501EC1B21970704700BF820C0020F2
:10CDF000830C002048F20200002106F0FFBB48F23D
:10CE00000100002106F0FABB48F20300002106F001
:10CE1000F5BB00002DE9F043304B314C1878314917
:10CE20002578314C314A324B91F8B170247892F820
:10CE300000C01A88C600361A2E480021037808461A
:10CE4000B04232DA012F00F1040304D1BCF1000F2B
:10CE500001D0294A00E0294A02EB43039A8815B120
:10CE6000012D1ED109E0C2F383230B2B02D90F2B16
:10CE700013D117E04FEA825905E0C2F3C3230B2B0D
:10CE8000F5D84FEA42594FEA595808F5FA69DFF8E0
:10CE90008080013128F81390C9B29C4238BF1C46EB
:10CEA00000E00F230130C0B2CAE7114D2A80114AB9
:10CEB0001370134B0C4A1970124B14708C4218707B
:10CEC000114907DA114B186801220A70BDE8F043D6
:10CED00008F042BE00200870BDE8F083890C0020F5
:10CEE000860C0020705D00208A0C00208B0C002036
:10CEF000E81400200E1500209C0100207401002081
:10CF0000F0140020F1140020850C0020E014002013
:10CF1000F214002010B5124B93F8B100114B012808
:10CF200018D1997A104A51B11048847A3CB10089DD
:10CF30001989814294BF00200120107004E0D1F1D2
:10CF4000010338BF00231370064A08490023937277
:10CF50008B7201E000229A72BDE81040FFF75ABFC1
:10CF6000705D0020740100208B0C00209C010020CB
:10CF700038B50C4649782378D1F1010138BF00213A
:10CF8000012B0D4602D0A37883B941B90020462178
:10CF900020706170A070E0702071A07138BD02B186
:10CFA000000220810123A370032321E019B1012293
:10CFB000227046231CE0012B11D12E4B32B1218966
:10CFC00042182D4822810178197006E02B4AC0F3DF
:10CFD000001100F00300117018700223E3E7022B28
:10CFE00008D1E27860710AB9C109A1710323A37065
:10CFF000637038BD032B10D16370A172E378A179FF
:10D000000225A57003EBC105691A657904EB41019E
:10D0100040EA052001338881E370E17806291ED9B2
:10D020002079431C1348D9B203782171994203D166
:10D0300001210020A17220713AB91049104A0878E4
:10D040000D4910700B700F4A00E00F4A106808F08D
:10D0500083FD00234620A370E370A37160700B4A28
:10D06000917A11B90A4B987A18B1BDE83840FFF7A8
:10D0700051BF38BD880C0020890C0020870C00208F
:10D08000860C0020E4140020EC1400207401002021
:10D090009C0100200A4808B5838903F020018AB268
:10D0A0006AB1038803F020018AB242B10BF0F6F8AE
:10D0B0000449C0B20022BDE80840FFF759BF08BDCF
:10D0C00000140140740100200A4808B5838903F068
:10D0D00020018AB26AB1038803F020018AB242B10A
:10D0E0000BF0DCF80449C0B20122BDE80840FFF7AC
:10D0F0003FBF08BD004C00409C01002008B50A4815
:10D1000001210BF04FF8094B5A780AB1501E5870A4
:10D11000074991F8B130012B04D1064842780AB191
:10D12000511E417008BD00BF001000407401002076
:10D13000705D00209C010020F0B55C485C4B8BB01A
:10D140000124002502263621047068461C705327EE
:10D150008DF800108DF803408DF801608DF80250B5
:10D160000AF0FEF8102363225248ADF80E3003A9EE
:10D170000492ADF80C70ADF814508DF816500AF00A
:10D1800027FE224621464B480BF003F8214649482A
:10D190000BF008F8214647480AF05CFE2A46402179
:10D1A00045480BF07FF8294644480AF067FA43489F
:10D1B0000AF0B4F947208DF8000068468DF8034066
:10D1C0008DF801608DF802500AF0CAF80822072194
:10D1D0003B480AF093FB8021019139488DF80B40C0
:10D1E00001A98DF808608DF809608DF80A500AF0E1
:10D1F0002BFB0C234FF4E1322F48ADF8223006A967
:10D200000692ADF81C50ADF81E50ADF82050ADF8A8
:10D2100024500AF0DBFF2246274840F225510BF04C
:10D220004AF8214624480BF02DF82346254C264881
:10D23000264A4FF47A7108F049FC94F8B140012C69
:10D240002F462AD134208DF8000068468DF8016001
:10D250008DF802508DF803400AF082F808221C482D
:10D2600021460AF04BFB1A48019601A90AF0ECFA94
:10D27000184806A90AF0AAFF2246164840F225518E
:10D280000BF019F8134821460AF0FCFF1248134A24
:10D290004FF47A71234608F019FC4FF47A71104A62
:10D2A0001048012308F012FC0BB0F0BD9C010020D7
:10D2B0007401002000100040001401402864024066
:10D2C00000080240705D0020E4140020FFCD00083B
:10D2D00000000240004C0040EC140020F5CD000896
:10D2E00009CE0008E0140020014B33F8100070470D
:10D2F000F2140020F7B501264FF4804700240225E0
:10D300003148009769468DF804408DF805508DF836
:10D3100006608DF807600AF097FA2B4839460AF044
:10D32000DFFAB0424FD080272848009769468DF831
:10D3300004608DF806408DF807400AF085FA23480E
:10D3400039460AF0D3FA224B93F8B100B0420CD11F
:10D350008DF8040069461F4800958DF807400AF0D3
:10D3600073FA1C4829460AF0C1FA3C2000F04CFB35
:10D370000524802115480AF0BBFA782000F028FB2C
:10D38000802112480AF0B2FA013C782000F020FB1C
:10D3900014F0FF04EDD10E4991F8B120012A12D109
:10D3A000062402210B480AF0A3FA782000F010FBB3
:10D3B000022108480AF09AFA782000F009FB631E5F
:10D3C00013F0FF04EDD1FEBD001002400008024042
:10D3D000705D0020000002402DE9F0416C4B984246
:10D3E00088B0044666D1002501264FF480680327E3
:10D3F0006848CDF8048001A98DF808608DF809709F
:10D400008DF80A508DF80B500AF01EFA614841461B
:10D410000AF06CFA05210A465F480AF06FFA5E4886
:10D42000062105220AF06AFA072105225A480AF065
:10D4300065FA01A80AF04BFAE022022301A9564836
:10D4400001928DF808308DF809708DF80A508DF82A
:10D450000B600AF0F9F920460AF0EAFB4FF48270FB
:10D460004FF4007130220723ADF80E00ADF816100E
:10D47000204603A9ADF81820ADF81C30ADF80C50CB
:10D48000ADF81050ADF81250ADF81450ADF81A5078
:10D490000AF026FC204629460AF052FC2046314676
:10D4A0000AF03DFC3A4802210AF056FC0028F9D067
:10D4B000374865E03948844267D1002502260127B4
:10D4C0004FF480783648CDF8048001A98DF80870B3
:10D4D0008DF809608DF80A508DF80B500AF0B4F9F8
:10D4E0002F4841460AF002FA2E480A2106220AF085
:10D4F00005FA2C480B2106220AF000FA06222948D8
:10D500000C210AF0FBF94FF4E051019125488DF808
:10D51000086001A98DF809608DF80A508DF80B504C
:10D520000AF092F920460AF083FB282007214FF4E5
:10D5300082724FF40073ADF81800ADF81C1020464D
:10D5400003A9ADF80E20ADF81630ADF80C50ADF8CB
:10D550001050ADF81260ADF81470ADF81A500AF022
:10D56000BFFB204629460AF0EBFB204639460AF06D
:10D57000D6FB0A4802210AF0EFFB0028F9D0074841
:10D580000AF0D9FBC0B28DF8030008B0BDE8F08105
:10D59000003001400010024000000240003C00400A
:10D5A000000402400008024070B504460E4641F2F5
:10D5B0000105204602210AF0CFFB28B9681E85B27A
:10D5C000002DF6D1002070BD204631460AF0B6FB92
:10D5D00041F20105204601210AF0BEFB20B9013DC0
:10D5E000ADB2002DF6D1EDE720460AF0A4FBC0B2A3
:10D5F00070BD38B505460C4600210AF090FB2B881B
:10D60000102C99B22CD009D8042C1DD0082C21D074
:10D61000022C36D121F0380081B232E0402C25D0E6
:10D6200007D8202C2DD121F038018AB242F02001F8
:10D6300027E0802C20D0B4F5807F22D121F0380360
:10D6400098B240F038011CE021F0380398B240F065
:10D65000080116E021F038018AB242F0100110E012
:10D6600021F0380293B243F018010AE021F03800AB
:10D6700081B241F0280104E021F0380293B243F076
:10D680003001298028460121BDE838400AF047BB17
:10D6900010B50A4A52E8003F09490A480C68006878
:10D6A00042E800310029F4D1074A1168201AB0FB82
:10D6B000F1F24FF47A7101FB032010BD900C0020B1
:10D6C000041000E09C0C0020980C002070B5924BD8
:10D6D00092481A6892492DED028B02600B685A1C21
:10D6E0000A6008F013FA8F480278012A40F010818E
:10D6F0008D490B78002B40F00B818C480178002974
:10D7000040F006818A4B1878002840F00181894951
:10D710000B78002B40F0FC8087480178002940F00E
:10D72000F780864C25886B1C98B2B0F57A7F844DC3
:10D730008CBF22802080FFF7ABFF2A6881492860D8
:10D74000831A0B600446FDF7DBFB7F4B7F4A1D68A5
:10D75000B2F90000291819605D68B2F90210B2F937
:10D7600004206D185D609D68AD189D60784B1D6844
:10D7700028181860586841189868596082189A608B
:10D78000744B754A1968B2F9000008181860596896
:10D79000B2F902000818B2F904109A6858605018DB
:10D7A0009860FEF77FFAF0EE408AFEF793FAB0EE4B
:10D7B000408AFEF7A7FA694B6949604AD3ED007ABF
:10D7C00093ED011A93ED022A91ED003AD1ED013A61
:10D7D00091ED024A77EEA80A71EE081A72EE002A5D
:10D7E000128873EE288A33EE888A34EE000AC3ED7D
:10D7F000000AC3ED011AC3ED022A12F00103C1EDC4
:10D80000008A81ED018A81ED020A0BD00A20B2FB69
:10D81000F0F100FB112293B2002B3CD1514D0126B7
:10D820002E7019E0504D01262E7047494F4E585822
:10D830004A4D9851002058504D4E59199D190E6867
:10D840002E6000250D6043494A4E5D5858509D5149
:10D8500004330C2BE9D1D9E73D4A47489958404D4C
:10D86000195000269E5045495A195E181068043315
:10D8700000250C2B30601560EED1414E3278012529
:10D880001AB9FDF7C1FD357003E0FDF7E1FD3D4933
:10D890000D70FFF79DFA294803881422B3FBF2F1BB
:10D8A00002FB113082B212B93748012101700133F5
:10D8B000642293FBF2F102FB113018B9FDF720FA54
:10D8C000324B18701D4A10886423B0FBF3F103FB40
:10D8D000110293B213B92E4A01211170C823B0FB73
:10D8E000F3F103FB110293B213B92A4A012111701B
:10D8F0004FF47A73B0FBF3F103FB110082B212B95B
:10D90000254B01211970FFF7C3FE244A001B10604C
:10D91000BDEC028B70BD00BF041000E09C0C002029
:10D92000900C00208C0C0020D50C0020000C002056
:10D93000D60C0020D70C0020F00B0020A20C0020F9
:10D940004415002020150020E40B00208011002049
